{
  "_format": "hh-sol-artifact-1",
  "contractName": "MultiSig",
  "sourceName": "contracts/Multisig.sol",
  "abi": [
    {
      "inputs": [
        {
          "internalType": "address[]",
          "name": "_owners",
          "type": "address[]"
        },
        {
          "internalType": "uint256",
          "name": "_confirmationRequired",
          "type": "uint256"
        }
      ],
      "stateMutability": "nonpayable",
      "type": "constructor"
    },
    {
      "anonymous": false,
      "inputs": [
        {
          "indexed": false,
          "internalType": "uint256",
          "name": "txID",
          "type": "uint256"
        }
      ],
      "name": "transactionConfirmed",
      "type": "event"
    },
    {
      "anonymous": false,
      "inputs": [
        {
          "indexed": false,
          "internalType": "uint256",
          "name": "_txID",
          "type": "uint256"
        }
      ],
      "name": "transactionExecuted",
      "type": "event"
    },
    {
      "anonymous": false,
      "inputs": [
        {
          "indexed": false,
          "internalType": "uint256",
          "name": "txID",
          "type": "uint256"
        },
        {
          "indexed": false,
          "internalType": "address",
          "name": "sender",
          "type": "address"
        },
        {
          "indexed": false,
          "internalType": "address",
          "name": "receiver",
          "type": "address"
        },
        {
          "indexed": false,
          "internalType": "uint256",
          "name": "value",
          "type": "uint256"
        }
      ],
      "name": "transactionSubmitted",
      "type": "event"
    },
    {
      "inputs": [
        {
          "internalType": "uint256",
          "name": "_txID",
          "type": "uint256"
        }
      ],
      "name": "confirmTransaction",
      "outputs": [],
      "stateMutability": "nonpayable",
      "type": "function"
    },
    {
      "inputs": [],
      "name": "confirmationRequired",
      "outputs": [
        {
          "internalType": "uint256",
          "name": "",
          "type": "uint256"
        }
      ],
      "stateMutability": "view",
      "type": "function"
    },
    {
      "inputs": [
        {
          "internalType": "uint256",
          "name": "_txID",
          "type": "uint256"
        }
      ],
      "name": "executeTransaction",
      "outputs": [],
      "stateMutability": "payable",
      "type": "function"
    },
    {
      "inputs": [
        {
          "internalType": "uint256",
          "name": "",
          "type": "uint256"
        },
        {
          "internalType": "address",
          "name": "",
          "type": "address"
        }
      ],
      "name": "isConfirmed",
      "outputs": [
        {
          "internalType": "bool",
          "name": "",
          "type": "bool"
        }
      ],
      "stateMutability": "view",
      "type": "function"
    },
    {
      "inputs": [
        {
          "internalType": "uint256",
          "name": "",
          "type": "uint256"
        }
      ],
      "name": "owners",
      "outputs": [
        {
          "internalType": "address",
          "name": "",
          "type": "address"
        }
      ],
      "stateMutability": "view",
      "type": "function"
    },
    {
      "inputs": [
        {
          "internalType": "address",
          "name": "_receiver",
          "type": "address"
        }
      ],
      "name": "submitTransaction",
      "outputs": [],
      "stateMutability": "payable",
      "type": "function"
    },
    {
      "inputs": [
        {
          "internalType": "uint256",
          "name": "",
          "type": "uint256"
        }
      ],
      "name": "transactions",
      "outputs": [
        {
          "internalType": "address",
          "name": "to",
          "type": "address"
        },
        {
          "internalType": "uint256",
          "name": "value",
          "type": "uint256"
        },
        {
          "internalType": "bool",
          "name": "executed",
          "type": "bool"
        }
      ],
      "stateMutability": "view",
      "type": "function"
    }
  ],
  "bytecode": "0x60806040523480156200001157600080fd5b50604051620015f7380380620015f7833981810160405281019062000037919062000435565b60018251116200007e576040517f08c379a0000000000000000000000000000000000000000000000000000000008152600401620000759062000522565b60405180910390fd5b60008111801562000090575081518111155b620000d2576040517f08c379a0000000000000000000000000000000000000000000000000000000008152600401620000c990620005ba565b60405180910390fd5b60005b8251811015620001fc57600073ffffffffffffffffffffffffffffffffffffffff168382815181106200010d576200010c620005dc565b5b602002602001015173ffffffffffffffffffffffffffffffffffffffff16036200016e576040517f08c379a000000000000000000000000000000000000000000000000000000000815260040162000165906200065b565b60405180910390fd5b6000838281518110620001865762000185620005dc565b5b60200260200101519080600181540180825580915050600190039060005260206000200160009091909190916101000a81548173ffffffffffffffffffffffffffffffffffffffff021916908373ffffffffffffffffffffffffffffffffffffffff1602179055508080600101915050620000d5565b508060018190555050506200067d565b6000604051905090565b600080fd5b600080fd5b600080fd5b6000601f19601f8301169050919050565b7f4e487b7100000000000000000000000000000000000000000000000000000000600052604160045260246000fd5b620002708262000225565b810181811067ffffffffffffffff8211171562000292576200029162000236565b5b80604052505050565b6000620002a76200020c565b9050620002b5828262000265565b919050565b600067ffffffffffffffff821115620002d857620002d762000236565b5b602082029050602081019050919050565b600080fd5b600073ffffffffffffffffffffffffffffffffffffffff82169050919050565b60006200031b82620002ee565b9050919050565b6200032d816200030e565b81146200033957600080fd5b50565b6000815190506200034d8162000322565b92915050565b60006200036a6200036484620002ba565b6200029b565b9050808382526020820190506020840283018581111562000390576200038f620002e9565b5b835b81811015620003bd5780620003a888826200033c565b84526020840193505060208101905062000392565b5050509392505050565b600082601f830112620003df57620003de62000220565b5b8151620003f184826020860162000353565b91505092915050565b6000819050919050565b6200040f81620003fa565b81146200041b57600080fd5b50565b6000815190506200042f8162000404565b92915050565b600080604083850312156200044f576200044e62000216565b5b600083015167ffffffffffffffff81111562000470576200046f6200021b565b5b6200047e85828601620003c7565b925050602062000491858286016200041e565b9150509250929050565b600082825260208201905092915050565b7f4e756d626572206f66206f776e657273206d757374206265206772656174657260008201527f207468616e20312e000000000000000000000000000000000000000000000000602082015250565b60006200050a6028836200049b565b91506200051782620004ac565b604082019050919050565b600060208201905081810360008301526200053d81620004fb565b9050919050565b7f4e756d626572206f6620636f6e6669726d6174696f6e20706172616d6574657260008201527f206572726f722100000000000000000000000000000000000000000000000000602082015250565b6000620005a26027836200049b565b9150620005af8262000544565b604082019050919050565b60006020820190508181036000830152620005d58162000593565b9050919050565b7f4e487b7100000000000000000000000000000000000000000000000000000000600052603260045260246000fd5b7f496e76616c6964206f776e657200000000000000000000000000000000000000600082015250565b600062000643600d836200049b565b915062000650826200060b565b602082019050919050565b60006020820190508181036000830152620006768162000634565b9050919050565b610f6a806200068d6000396000f3fe6080604052600436106100705760003560e01c806380f59a651161004e57806380f59a65146100f95780639ace38c214610136578063c01a8c8414610175578063ee22610b1461019e57610070565b8063025e7c271461007557806366d651db146100b257806380597b2f146100ce575b600080fd5b34801561008157600080fd5b5061009c600480360381019061009791906109b1565b6101ba565b6040516100a99190610a1f565b60405180910390f35b6100cc60048036038101906100c79190610a66565b6101f9565b005b3480156100da57600080fd5b506100e36103c8565b6040516100f09190610aa2565b60405180910390f35b34801561010557600080fd5b50610120600480360381019061011b9190610abd565b6103ce565b60405161012d9190610b18565b60405180910390f35b34801561014257600080fd5b5061015d600480360381019061015891906109b1565b6103fd565b60405161016c93929190610b33565b60405180910390f35b34801561018157600080fd5b5061019c600480360381019061019791906109b1565b610464565b005b6101b860048036038101906101b391906109b1565b610604565b005b600081815481106101ca57600080fd5b906000526020600020016000915054906101000a900473ffffffffffffffffffffffffffffffffffffffff1681565b600073ffffffffffffffffffffffffffffffffffffffff168173ffffffffffffffffffffffffffffffffffffffff1603610268576040517f08c379a000000000000000000000000000000000000000000000000000000000815260040161025f90610bc7565b60405180910390fd5b600034116102ab576040517f08c379a00000000000000000000000000000000000000000000000000000000081526004016102a290610c33565b60405180910390fd5b60006003805490509050600360405180606001604052808473ffffffffffffffffffffffffffffffffffffffff16815260200134815260200160001515815250908060018154018082558091505060019003906000526020600020906003020160009091909190915060008201518160000160006101000a81548173ffffffffffffffffffffffffffffffffffffffff021916908373ffffffffffffffffffffffffffffffffffffffff1602179055506020820151816001015560408201518160020160006101000a81548160ff02191690831515021790555050507f04fc05a0bda9c67c2f688b4ae83554a0229294c1122ec886c639618e4b9b24ec813384346040516103bc9493929190610c53565b60405180910390a15050565b60015481565b60026020528160005260406000206020528060005260406000206000915091509054906101000a900460ff1681565b6003818154811061040d57600080fd5b90600052602060002090600302016000915090508060000160009054906101000a900473ffffffffffffffffffffffffffffffffffffffff16908060010154908060020160009054906101000a900460ff16905083565b60038054905081106104ab576040517f08c379a00000000000000000000000000000000000000000000000000000000081526004016104a290610ce4565b60405180910390fd5b6002600082815260200190815260200160002060003373ffffffffffffffffffffffffffffffffffffffff1673ffffffffffffffffffffffffffffffffffffffff16815260200190815260200160002060009054906101000a900460ff1615610549576040517f08c379a000000000000000000000000000000000000000000000000000000000815260040161054090610d50565b60405180910390fd5b60016002600083815260200190815260200160002060003373ffffffffffffffffffffffffffffffffffffffff1673ffffffffffffffffffffffffffffffffffffffff16815260200190815260200160002060006101000a81548160ff0219169083151502179055507f7aad8b13f97c2b6ecdb0159c23f5f72fa4456253b8142773798617da44cfb016816040516105e19190610aa2565b60405180910390a16105f28161084d565b156106015761060081610604565b5b50565b600380549050811061064b576040517f08c379a000000000000000000000000000000000000000000000000000000000815260040161064290610ce4565b60405180910390fd5b6003818154811061065f5761065e610d70565b5b906000526020600020906003020160020160009054906101000a900460ff16156106be576040517f08c379a00000000000000000000000000000000000000000000000000000000081526004016106b590610deb565b60405180910390fd5b6000600382815481106106d4576106d3610d70565b5b906000526020600020906003020160000160009054906101000a900473ffffffffffffffffffffffffffffffffffffffff1673ffffffffffffffffffffffffffffffffffffffff16600383815481106107305761072f610d70565b5b90600052602060002090600302016001015460405161074e90610e3c565b60006040518083038185875af1925050503d806000811461078b576040519150601f19603f3d011682016040523d82523d6000602084013e610790565b606091505b50509050806107d4576040517f08c379a00000000000000000000000000000000000000000000000000000000081526004016107cb90610e9d565b60405180910390fd5b7fbdc798ca9d696d603c31a625ad352018d031588c2b3c897f60924a8b9051a9b3826040516108039190610aa2565b60405180910390a160016003838154811061082157610820610d70565b5b906000526020600020906003020160020160006101000a81548160ff0219169083151502179055505050565b60006003805490508210610896576040517f08c379a000000000000000000000000000000000000000000000000000000000815260040161088d90610ce4565b60405180910390fd5b600080600090505b600080549050811015610967576002600085815260200190815260200160002060008083815481106108d3576108d2610d70565b5b9060005260206000200160009054906101000a900473ffffffffffffffffffffffffffffffffffffffff1673ffffffffffffffffffffffffffffffffffffffff1673ffffffffffffffffffffffffffffffffffffffff16815260200190815260200160002060009054906101000a900460ff161561095a57818061095690610eec565b9250505b808060010191505061089e565b50600154811015915050919050565b600080fd5b6000819050919050565b61098e8161097b565b811461099957600080fd5b50565b6000813590506109ab81610985565b92915050565b6000602082840312156109c7576109c6610976565b5b60006109d58482850161099c565b91505092915050565b600073ffffffffffffffffffffffffffffffffffffffff82169050919050565b6000610a09826109de565b9050919050565b610a19816109fe565b82525050565b6000602082019050610a346000830184610a10565b92915050565b610a43816109fe565b8114610a4e57600080fd5b50565b600081359050610a6081610a3a565b92915050565b600060208284031215610a7c57610a7b610976565b5b6000610a8a84828501610a51565b91505092915050565b610a9c8161097b565b82525050565b6000602082019050610ab76000830184610a93565b92915050565b60008060408385031215610ad457610ad3610976565b5b6000610ae28582860161099c565b9250506020610af385828601610a51565b9150509250929050565b60008115159050919050565b610b1281610afd565b82525050565b6000602082019050610b2d6000830184610b09565b92915050565b6000606082019050610b486000830186610a10565b610b556020830185610a93565b610b626040830184610b09565b949350505050565b600082825260208201905092915050565b7f496e76616c696420726563656976657200000000000000000000000000000000600082015250565b6000610bb1601083610b6a565b9150610bbc82610b7b565b602082019050919050565b60006020820190508181036000830152610be081610ba4565b9050919050565b7f547820616d6f756e742063616e6e6f7420626520300000000000000000000000600082015250565b6000610c1d601583610b6a565b9150610c2882610be7565b602082019050919050565b60006020820190508181036000830152610c4c81610c10565b9050919050565b6000608082019050610c686000830187610a93565b610c756020830186610a10565b610c826040830185610a10565b610c8f6060830184610a93565b95945050505050565b7f496e76616c6964205472616e73616374696f6e20494400000000000000000000600082015250565b6000610cce601683610b6a565b9150610cd982610c98565b602082019050919050565b60006020820190508181036000830152610cfd81610cc1565b9050919050565b7f5472616e73616374696f6e20697320616c726561647920636f6e6669726d6564600082015250565b6000610d3a602083610b6a565b9150610d4582610d04565b602082019050919050565b60006020820190508181036000830152610d6981610d2d565b9050919050565b7f4e487b7100000000000000000000000000000000000000000000000000000000600052603260045260246000fd5b7f5472616e73616374696f6e20697320616c726561647920657865637574656400600082015250565b6000610dd5601f83610b6a565b9150610de082610d9f565b602082019050919050565b60006020820190508181036000830152610e0481610dc8565b9050919050565b600081905092915050565b50565b6000610e26600083610e0b565b9150610e3182610e16565b600082019050919050565b6000610e4782610e19565b9150819050919050565b7f5472616e73616374696f6e20657865637574696f6e206661696c656400000000600082015250565b6000610e87601c83610b6a565b9150610e9282610e51565b602082019050919050565b60006020820190508181036000830152610eb681610e7a565b9050919050565b7f4e487b7100000000000000000000000000000000000000000000000000000000600052601160045260246000fd5b6000610ef78261097b565b91507fffffffffffffffffffffffffffffffffffffffffffffffffffffffffffffffff8203610f2957610f28610ebd565b5b60018201905091905056fea26469706673582212203ce39271c9a3abfc26ba6f68e8c142de67ac89542af5ed327e3810e7ba78f85364736f6c63430008180033",
  "linkReferences": {},
  "deployedLinkReferences": {}
}